:030000000208B53E
:0C08B500787FE4F6D8FD75813A0208FC5B
:100BEE007FBFDFEFF7FBFDFE8040201008040201FF
:100B6200140E000000000000000000000000000061
:100B7200000000000000142200000000000000003D
:0C0B820000000000000000000000000067
:0C0BFE00E4F50EF522750A01750D0222C7
:0A0BB500900BEE93F5807F147E0094
:0B0BBF00EF1FAC0670011E4C70F62208
:100B8F00C2B6C2B5E4FEEFC4131313540124FF928F
:100B9F00B4EF25E0FFD2B60000C2B60EBE08E7D212
:050BAF00B50000C2B515
:010BB400221E
:100A1900E50A14FFEFD39400401B740D2FF8E6FE8E
:100A2900740E2FF8A60674212FF8E6FE74222FF80B
:100A3900A6061F80DFE50D24FE600D14600D14600D
:100A49000D2403700B152222052222150E22050EF4
:010A5900227A
:1008000020B12A7FE87E03120BBF20B11DE50DB495
:1008100004047F0180027F00E50DB403047E0180A3
:10082000027E00EE4F6003750D0130B1FD20B02A4D
:100830007FE87E03120BBF20B01DE50DB404047FDA
:100840000180027F00E50DB403047E0180027E007A
:10085000EE4F6003750D0230B0FD20B22A7F647E3A
:1008600000120BBF20B21DE50DB402047F0180020F
:100870007F00E50DB401047E0180027E00EE4F6032
:1008800003750D0330B2FD20B32A7FE87E03120BFF
:10089000BF20B31DE50DB402047F0180027F00E597
:1008A0000DB401047E0180027E00EE4F6003750DE1
:0508B0000430B3FD223D
:100A5A001209CC7C007D081209418D0B1209CC7C4D
:100A6A00007D081209418D0CE4F53AE53AC3950A6E
:100A7A005019740E253AF8E6B50B0C7422253AF88B
:0B0A8A00E6B50C03120A5A053A80E0A2
:010A9500223E
:100B3400E50E650B7027E522650C7021120A5A74C4
:100B44000D250AF8E6FF740E250AF8A60774212578
:0E0B54000AF8E6FF7422250AF8A607050A2211
:100A9600E4FDEDC3950A502D74222DF8E6900BF671
:100AA60093FF120B8F740E2DF8E6120BB57580FFAF
:100AB600E50C900BF693FF120B8FE50B120BB57539
:050AC60080FF0D80CD52
:010ACB002208
:100ACC00E50ED394075006E52294074007E4FF1285
:100ADC000B8F80FE7F04EFC3950A5018740E2FF80D
:100AEC00E6B50E0D74222FF8E6B522057580FF8051
:040AFC00FE0F80E287
:010B000022D2
:100BDE00438901758CD8758AF0D2A9D2AFD28C22F6
:100BCA00120BDE120BFE120A96120ACC120B341208
:040BDA00080080F29D
:03000B00020B01E4
:0D0B0100C0E0C0D075D000C000C006C00725
:100B0E00758CD8758AF00509E509700205086432FE
:0B0B1E0045087007F508F509120A19D8
:0B0B2900D007D006D000D0D0D0E032C2
:1008C100020BCAE493A3F8E493A34003F68001F278
:1008D10008DFF48029E493A3F85407240CC8C33338
:1008E100C4540F4420C8834004F456800146F6DF07
:1008F100E4800B0102040810204080900B62E47E2A
:10090100019360BCA3FF543F30E509541FFEE493FB
:10091100A360010ECF54C025E060A840B8E493A3C2
:10092100FAE493A3F8E493A3C8C582C8CAC583CAED
:10093100F0A3C8C582C8CAC583CADFE9DEE780BEA5
:010B8E000066
:10094100C2D5EC30E709B2D5E4C39DFDE49CFCEED1
:1009510030E715B2D5E4C39FFFE49EFE120977C3C9
:10096100E49DFDE49CFC800312097730D507C3E4C4
:060971009FFFE49EFE2240
:1009CC00AC36AD37AE38AF397810EC4D4E4F7004B5
:1009DC007CA57DA5C3EC13FCED13FDEE13FEEF130C
:1009EC00FF5010EC64CCFCED644CFDEE644EFEEF5D
:1009FC0064CEFFD8DF8C368D378E388F39EE547F2E
:0D0A0C00FE228E368F3774A5F538F539229D
:10097700BC000BBE0029EF8DF084FFADF022E4CC64
:10098700F875F008EF2FFFEE33FEEC33FCEE9DEC2D
:10099700984005FCEE9DFE0FD5F0E9E4CEFD22ED73
:1009A700F8F5F0EE8420D21CFEADF075F008EF2FBD
:1009B700FFED33FD4007985006D5F0F222C398FDAE
:0509C7000FD5F0EA224B
:00000001FF
