:10145400252E326620636D0A0000000000000000A3
:091464000000000000000000007F
:04149F00020A00003D
:1013550078227C007D007BFF7A14795D7E007F100A
:10136500120D98C296D2971214383098FDC2981271
:1013750013A98F3B8E3A8D398C387535FF75361428
:101385007537547B007A007922120EB67B007A00FD
:10139500792212146DAF997508008F0912141B126A
:0413A500148080C66A
:10143800758920758BFA758DFAD28EC29FD29ED28D
:0C1448009CD2ACD2AFC2A0C2A1C2A222B2
:0C149300C2AC8F993099FDC299D2AC22F6
:10146D00120DBEFF600C121493740129F9E43AFABF
:03147D0080EE22DC
:10148000E4FFE4FEE4FD0DBD10FC0EBEFFF60FBF51
:02149000FFF06B
:011492002237
:1013A9007B64E4F535F534F533F532FFFED296ADBD
:1013B900031BED70FA758901E4F58AF58CC2963044
:1013C90097FDD28C2097FDC28CAF8CEFFEAD8AEDD4
:1013D900FFAC06E412090B7B727A1C7917783C1270
:0A13E90008008F358E348D338C32EE
:0113F30022D7
:10141B00E508700DE509147008C2A0C2A1C2A28034
:0D142B0006D2A0D2A1D2A2AF0912149322C2
:10080000EC4D6011E8497017ED33EC3304600DE4F2
:10081000FCFFFEFD22E933E8330470F80209791287
:10082000094458046009E4CC248150062850090288
:100830000983284003020980C0E0EB4A7044B98074
:1008400006D0E0FB02096FEF4E701CBD8008EBFF85
:10085000EAFEE9FD80EBE98DF0A4FEE5F00208E98F
:10086000E9CDF9EAFEEBFFEF89F0A4FCE5F0CE89D3
:10087000F0A42EFFE435F0CD89F0A42DFEE435F090
:100880008067EF4E7005BD80D780C3EF8BF0A4ACBE
:10089000F0EE8BF0A42CFCE435F0F8EF8AF0A42CF9
:1008A000E5F038FCE433CB8DF0A42CFCE5F03BF80C
:1008B000EE8AF0A42CFCE5F038F8E433CF89F0A4FC
:1008C0002CFCE5F038CF3400CE89F0A42FFFE5F002
:1008D0003EFEE433C98DF0A42EFEE5F039CD8AF05A
:1008E000A42FFFE5F03EFEE43DFD33D0E0FB5007D2
:1008F0000BBB000F020983EC2CFCEF33FFEE33FE41
:06090000ED33FD02095B6E
:1009060075F020800E75F010800575F0087D007E6C
:10091600007F003392D530D503120E16EC3340100B
:10092600EF33FFEE33FEED33FDEC33FCD5F0ED2275
:0E093600E5F0247EA2D513CC92E7CDCEFF22B1
:100E5A00E5492435F8E60549227832300702783523
:100E6A00E475F001120E24020DBE2000EB7F2ED293
:100E7A00008018EF540F2490D43440D4FF30040B70
:100E8A00EF24BFB41A0050032461FFE54A6002153B
:100E9A004A054DE54D7002054C30070D7832E47570
:100EAA00F001120E24EF020E040213F47403D207A7
:100EBA008003E4C207F5498B328A338934E4F54A60
:100ECA00F54CF54DE54A60077F20120E9580F575C1
:100EDA004BFFC201C200C202C203C205C206C20857
:100EEA00120E63FF700D3007057F00120EA6AF4D7C
:100EFA00AE4C22B4255FC2D5C204120E63FF24D0C1
:100F0A00B40A00501A75F00A784A30D50508B6FFB7
:100F1A000106C6A426F620D5047002D20380D9247D
:100F2A00CFB41A00EF5004C2E5D204021193D201E1
:100F3A0080C6D20080C0D20280BCD2D580BAD20587
:100F4A0080B47F20120E952002077401B54A004032
:100F5A00F1120E5AFF120E95020ECED208D2068058
:100F6A0095120E5AFB120E5AFA120E5AF94A4B7081
:100F7A0006798A7A127BFF20022EE54A602A7E00D1
:100F8A008E82758300120DD760060EEE654B70F0E7
:100F9A00C2D5EBC0E0EAC0E0E9C0E0EE1211F3D03E
:100FAA00E0F9D0E0FAD0E0FB120DBEFF60AAEBC078
:100FBA00E0EAC0E0E9C0E0120E95D0E02401F9D0E1
:100FCA00E03400FAD0E0FBE54B0460DCD54BD98075
:100FDA0087D20280A21211D660F7E54B7001041283
:100FEA00098EA94B600DE54B600914F54B12127D71
:100FFA00EF60F3EA30E702F404C3995077EAF42584
:10100A004B0430E701E404F54B800D1211D660C1A0
:10101A00EA054B254B12098EEA7848F630E701E4D7
:10102A00254B04D54B04200501141211F3E4C0E04A
:10103A0012127D7848E6601320E70714F6120E7D37
:10104A00802204F6D0E014C0E07F00120E7DE54B4A
:10105A006007120E74154B800B300503120E74D004
:10106A00E0020ECED0E00480C51211D660A0E54B96
:10107A000412098E7848EAF6E54B2005026001045D
:05108A0024041211F323
:10108F0074FF04C0E012127D120E7DE54B200502A5
:10109F006003120E74D0E0B54BE87F45120E8778CF
:1010AF0048E67F2B30E7047F2DF404C0E0120E9545
:1010BF00D0E075F00A84C0F0120E7ED0E0120E7EE2
:1010CF00020ECE791080027908C206C2088008D2BB
:1010DF00D5790A8004790AC2D5E54B047002F54B25
:1010EF00E4FAFDFEFF120E5AFC7B08200113120ECC
:1010FF005AFD7B1030000A120E5AFE120E5AFF7B59
:10110F0020EC3382D592D55013C3E43000069FFFF5
:10111F00E49EFEE42001039DFDE49CFCE4CBF8C2B9
:10112F0001EC700CCFCECDCCE824F8F870F380171B
:10113F00C3EF33FFEE33FEED33FDEC33FCEB33FB4C
:10114F00994002FB0FD8E9EB300105F8D0E0C44815
:10115F00B201C0E00AEC4D4E4F78207B0070C2EA1E
:10116F00B54B0040BCC0E01211F5D0F0D0E020012B
:10117F0004C4C0E0C4B201C0F0120E7ED0F0D5F0AE
:10118F00EB020ECE120E340F6B5310D2580F3C4C95
:10119F000F384210D64F10DE4410DE490F51431066
:1011AF00E4551015461073450FDF4712AA500F4034
:1011BF002D0F442E0F672B0F48230F652012932AF4
:1011CF000F004800000F5FE54BB4FF03754B06128D
:1011DF000E5AFC120E5AFD120E5AFE120E5AFF78BC
:1011EF00410209BD790AA2D5200314300509B910AF
:1011FF00020404B9080104A2D520060250010420FC
:10120F0002689202B54A005034C0E07F20300319C3
:10121F007F30A20272067205500F12124CC202C228
:10122F0006C205C2087F30800F300503E9C0E01207
:10123F000E95300503D0E0F9D0E0B54ACC30051754
:10124F007F30B9100C120E957F583004077F7880CD
:10125F0003B90803120E953002057F2D020E957FFC
:10126F00202008F87F2B2006F322920280CF7F00E8
:10127F00B4070050052441F8E6FF22286E756C6C08
:10128F002900D201120E5A3001F8C201784A30D526
:10129F000108F6020F002D50434958120E5A24032D
:1012AF00B405004001E49012A593120E86743A1211
:0A12BF000E86D203754A040210D215
:10094400E9D2E7C933E833F892D5EDD2E7CD33ECF9
:0709540033FC5002B2D52272
:10095B00EC30E7100FBF000C0EBE00080DBD0004FD
:10096B000BEB6014A2D5EB13FCED92E7FD2274FFA9
:10097B00FCFDFEFF22E480F8A2D574FF13FC7D8002
:03098B00E480EF16
:10098E00F920E72824F950037907E4F42402FB1830
:10099E00DBFDE624FB5014E9600DE4F618E604F6E0
:0F09AE00B40A08E4F6D9F57401F60A22C2D5227C
:1009BD00ED33EC3392D5FA602AB4FF33EDC2E77B09
:1009CD00FF60067A0979E2E4227A0979EB20D504F1
:1009DD007A0979E6224E614E002B494E46002D498B
:1009ED004E4600E47A08F608DAFC7B00740722E82C
:1009FD00C0E0ECC0E0EDC0E0EEC0E0EFC0E0EA75B5
:100A0D00F010A4CAABF075F04DA42BFBE435F0FC4F
:100A1D00EA2410FAEB34C5FBEC34D9FCEDC2E7FF48
:100A2D0075F056A4F42411C5F0F434C58FF0A42A42
:100A3D00E5F03BE43CF620E714120C88D0E0FFD043
:100A4D00E0FED0E0FDD0E0FC120BBB8014F40412EC
:100A5D000C88D0E0FFD0E0FED0E0FDD0E0FC120825
:100A6D0000D0E0F8E6FAEDD2E7CD33EC332482FB8B
:100A7D00E4C3CF33CFCE33CECD33CD33DBF37B07D2
:100A8D0075F00A846004F6081B0AE5F0F6088FF08D
:100A9D00740AA4FFACF08EF0740AA42CFEACF050D6
:100AAD00010C8DF0740AA42CFDE435F0F608DBDEA4
:030ABD0074072299
:100AC000020979E86480F8E933E83360110460F0E2
:100AD000ED33EC337009E8FCE9FDEAFEEBFF22049C
:100AE00060DED3EB9FEA9EE99DE8C2E78CF0C2F797
:100AF00095F0400CE8CCF8E9CDF9EACEFAEBCFFB63
:100B000012094485D0F05804700320D5B3E804706E
:100B1000075002B2D502098392D5EC0460F7E4CC09
:100B2000C0E0C398F8603B94186008400DD0E0FB2B
:100B300002095BE4FBFAC9FC8028E830E406E4C95A
:100B4000FBE4CAFCE830E305E4C9CACBFCE854077F
:100B50006010F8C3E913F9EA13FAEB13FBEC13FC8A
:100B6000D8F130F52FC3E49CFCEF9BFFEE9AFEED2D
:100B700099FDD0E0FBEF4E4D4C701222DB030209D1
:100B800080EC2CFCEF33FFEE33FEED33FDED30E770
:100B9000EB02095BEF2BFFEE3AFEED39FDD0E0FBF7
:100BA00050130BBB0003020983ED13FDEE13FEEFA0
:080BB00013FFEC13FC02095BCA
:100BB800020983EC5D046005E859047003020979B1
:100BC800120944580460F6EC4860F2EC7004FDFE2B
:100BD800FF22C860DB2481C85009C3986002500610
:100BE8000209809850CAF582E9294B4A7005AB8200
:100BF80002096F75F0007C1A7880C3EF9BEE9AEDBE
:100C080099400DC3EF9BFFEE9AFEED99FDE842F087
:100C1800DC23ACF0D0E0FFD0E0FED0E0FDAB8220DA
:100C2800E7101BEB60BAEC2CFCEF33FFEE33FEED64
:100C380033FD02095BE803F830E705C0F075F00002
:100C4800EF2FFFEE33FEED33FD40B830E7C280AA48
:100C58003F8000004120000042C80000447A0000A4
:100C6800461C400047C35000497424004B18968026
:100C78004CBEBC205A0E1BCA6753C21C749DC5AE1D
:100C8800FB60065407601C2323120CB6EB54386033
:100C980009120CA2120CB1120800ECF8EDF9EEFAE8
:100CA800EFCB22EB120CB180F1543803241C900CCA
:100CB80058FE93FC0EEE93FD0EEE930ECE93FF229C
:030000000212C920
:0C12C900787FE4F6D8FD75814D0213100B
:100CC800E709F608DFFA8046E709F208DFFA803E0E
:100CD80088828C83E709F0A3DFFA8032E309F608FB
:100CE800DFFA8078E309F208DFFA807088828C8363
:100CF800E309F0A3DFFA806489828A83E0A3F60817
:100D0800DFFA805889828A83E0A3F208DFFA804CF0
:100D180080D280FA80C680D4806980F280338010C7
:100D280080A680EA809A80A880DA80E280CA803330
:100D380089828A83ECFAE493A3C8C582C8CCC583A8
:100D4800CCF0A3C8C582C8CCC583CCDFE9DEE78078
:100D58000D89828A83E493A3F608DFF9ECFAA9F0F7
:100D6800EDFB2289828A83ECFAE0A3C8C582C8CC4D
:100D7800C583CCF0A3C8C582C8CCC583CCDFEADE66
:100D8800E880DB89828A83E493A3F208DFF980CCC8
:100D980088F0EF60010E4E60C388F0ED2402B404C1
:100DA8000050B9F582EB2402B4040050AF23234568
:060DB8008223900D187368
:100DBE00BB010689828A83E0225002E722BBFE0233
:090DCE00E32289828A83E4932266
:100DD700BB010CE58229F582E5833AF583E02250D1
:100DE70006E92582F8E622BBFE06E92582F8E2221B
:0D0DF700E58229F582E5833AF583E4932235
:100E0400BB010689828A83F0225002F722BBFE01CD
:020E1400F322C7
:0E0E1600C3E49FFFE49EFEE49DFDE49CFC22ED
:100E2400FAE6FB0808E6F925F0F618E6CA3AF622CF
:100E3400D083D082F8E4937012740193700DA3A34D
:100E440093F8740193F5828883E473740293686061
:060E5400EFA3A3A380DF61
:1013F400EFB40A07740D1213FF740A309811A899F8
:10140400B8130CC2983098FDA899C298B811F63058
:0714140099FDC299F5992230
:1012D500021355E493A3F8E493A34003F68001F2C7
:1012E50008DFF48029E493A3F85407240CC8C3331A
:1012F500C4540F4420C8834004F456800146F6DFE9
:10130500E4800B010204081020408090149FE47EC5
:10131500019360BCA3FF543F30E509541FFEE493DD
:10132500A360010ECF54C025E060A840B8E493A3A4
:10133500FAE493A3F8E493A3C8C582C8CAC583CACF
:10134500F0A3C8C582C8CAC583CADFE9DEE780BE87
:0114A3000048
:00000001FF
