:0908E200010900010803010A00EC
:1008D200758901758CFE758A33D2A9D28CD2AF226A
:03000B0002088C5C
:10088C00C0E0C0D0C28C758CFE758A33E509D39557
:10089C00085004D2808002C2800509E509C394285F
:0E08AC004005750900050AD28CD0D0D0E0328C
:1008BA001208D2E50AB41003750801E50AB420F358
:0808CA00750803E4F50A80EB58
:03000000020800F3
:0C080000787FE4F6D8FD75810A020847F5
:10080C000208BAE493A3F8E493A34003F68001F240
:10081C0008DFF48029E493A3F85407240CC8C333ED
:10082C00C4540F4420C8834004F456800146F6DFBC
:10083C00E4800B01020408102040809008E2E47E62
:10084C00019360BCA3FF543F30E509541FFEE493B1
:10085C00A360010ECF54C025E060A840B8E493A378
:10086C00FAE493A3F8E493A3C8C582C8CAC583CAA3
:10087C00F0A3C8C582C8CAC583CADFE9DEE780BE5B
:0108EB00000C
:00000001FF
