:08094600010932010A00C18021
:07094F008F08E50870FC228F
:1008DD0020B1197F0A12094F20B10E74052509F5B3
:0D08ED0009C39464400375096430B1FD2215
:1008FA0020B2197F0A12094F20B20E74FB2509F59E
:0D090A0009D394005003E4F50930B2FD223A
:1009170020B30D7F0A12094F20B302B20030B3FD96
:0109270022AD
:10092800758901758CFC758A18D28CD2A9D2AF2230
:0E0938001209281209171208DD1208FA80F5BC
:03000B0002088C5C
:10088C00C0E0C0D0C28C758A18758CFCD28CE5087F
:10089C006002150830001AC2A6050AE50AC39509BC
:1008AC005004D2A78002C2A7E50AC39464401D80FD
:1008BC0018C2A7050AE50AC395095004D2A68002FE
:1008CC00C2A6E50AC394644003750A00D0D0D0E0F8
:0108DC0032E9
:03000000020800F3
:0C080000787FE4F6D8FD758120020847DF
:10080C00020938E493A3F8E493A34003F68001F2C1
:10081C0008DFF48029E493A3F85407240CC8C333ED
:10082C00C4540F4420C8834004F456800146F6DFBC
:10083C00E4800B0102040810204080900946E47EFD
:10084C00019360BCA3FF543F30E509541FFEE493B1
:10085C00A360010ECF54C025E060A840B8E493A378
:10086C00FAE493A3F8E493A3C8C582C8CAC583CAA3
:10087C00F0A3C8C582C8CAC583CADFE9DEE780BE5B
:01094E0000A8
:00000001FF
