:100D5E003F065B4F666D7D077F6F777C395E7971DD
:010D6E000084
:100D4400020A000002080000010C00040D0000006B
:090D540000C100041100000000C0
:100C4A00E4FFEFB40800504D900C59F828287302BD
:100C5A000C71020C75020C7D020C81020C89020CCB
:100C6A008D020C95020C99D2A28002C2A2D2A3D202
:100C7A00A48022D2A28002C2A2C2A3D2A48016D287
:100C8A00A28002C2A2D2A3C2A4800AD2A28002C2B5
:100C9A00A2C2A3C2A474112FF8E6F5807D0A7C00D3
:100CAA00ED1DAA0470011C4A70F6E4F5800FEF648A
:030CBA0008708F30
:010CBD002214
:100AB200AF8CEFFEAD8A7C00E42DF50BEC3EF50A1F
:100AC200E4F58CF58AAC0AAD0B12090B7B7B7A1428
:100AD200792E783E1208001209448F108E0F8D0E67
:100AE2008C0DE47FA07E0FFDFCAB10AA0FA90EA80F
:100AF2000DC3120AA1500330000FC20075113F75D9
:100B0200125075135075147922E47B107A27F9F884
:100B1200AF10AE0FAD0EAC0D120A01AC00AD01AEBE
:100B220002AF03E47BE87A03F9F8120A01745E2F3C
:100B3200F582740D3EF583E493F511E47BE87A03C4
:100B4200F9F8AF10AE0FAD0EAC0D120A01AC00AD4C
:100B520001AE02AF03E47B64FAF9F8120A01745E93
:100B62002FF582740D3EF583E493F512E47B64FA6B
:100B7200F9F8AF10AE0FAD0EAC0D120A01AC00AD1C
:100B820001AE02AF03E47B0AFAF9F8120A01745EBD
:100B92002FF582740D3EF583E493F513E47B0AFA94
:100BA200F9F8AF10AE0FAD0EAC0D120A01745E2B48
:0C0BB200F582740D3AF583E493F51422EB
:03000B00020D6F74
:030D6F00D200327D
:03001B00020CBE16
:100CBE00C0E0C083C082C0D075D000C000C002C0EA
:100CCE0004C005C007758DF8758B30120C4A0509E6
:100CDE00E50970020508C39464E5089400401F7589
:100CEE000800750900D2B1000000000000000000ED
:100CFE00000000000000000000000000C2B1D0079C
:100D0E00D005D004D002D000D0D0D082D083D0E095
:010D1E0032A2
:100D1F00758911E4F58CF58A758DF8758B30D2A92C
:100D2F00D2ABD28ED2AF30B0FDD28C20B0FDC28C00
:050D3F00120AB280F170
:10080000EC4D6011E8497017ED33EC3304600DE4F2
:10081000FCFFFEFD22E933E8330470F80209B01250
:10082000097B58046009E4CC248150062850090251
:1008300009BA2840030209B7C0E0EB4A7044B98006
:1008400006D0E0FB0209A6EF4E701CBD8008EBFF4E
:10085000EAFEE9FD80EBE98DF0A4FEE5F00208E98F
:10086000E9CDF9EAFEEBFFEF89F0A4FCE5F0CE89D3
:10087000F0A42EFFE435F0CD89F0A42DFEE435F090
:100880008067EF4E7005BD80D780C3EF8BF0A4ACBE
:10089000F0EE8BF0A42CFCE435F0F8EF8AF0A42CF9
:1008A000E5F038FCE433CB8DF0A42CFCE5F03BF80C
:1008B000EE8AF0A42CFCE5F038F8E433CF89F0A4FC
:1008C0002CFCE5F038CF3400CE89F0A42FFFE5F002
:1008D0003EFEE433C98DF0A42EFEE5F039CD8AF05A
:1008E000A42FFFE5F03EFEE43DFD33D0E0FB5007D2
:1008F0000BBB000F0209BAEC2CFCEF33FFEE33FE0A
:06090000ED33FD02099237
:1009060075F020800E75F010800575F0087D007E6C
:10091600007F003392D530D503120A93EC33401092
:10092600EF33FFEE33FEED33FDEC33FCD5F0ED2275
:0E093600E5F0247EA2D513CC92E7CDCEFF22B1
:10094400EDD2E7CD33EC3392D524814006E4FFFEAB
:10095400FDFC22FCE4CFCECDCC24E0501174FF800A
:10096400EDC3CC13CCCD13CDCE13CECF13CF0470A7
:07097400F030D5DE020A930A
:10097B00E9D2E7C933E833F892D5EDD2E7CD33ECC2
:07098B0033FC5002B2D5223B
:10099200EC30E7100FBF000C0EBE00080DBD0004C6
:1009A2000BEB6014A2D5EB13FCED92E7FD2274FF72
:1009B200FCFDFEFF22E480F8A2D574FF13FC7D80CB
:0309C200E480EFDF
:03000000020BBE32
:0C0BBE00787FE4F6D8FD758120020C055C
:1009C50075F008758200EF2FFFEE33FECD33CDCCE9
:1009D50033CCC58233C5829BED9AEC99E58298406C
:1009E5000CF582EE9BFEED9AFDEC99FC0FD5F0D649
:1009F500E4CEFBE4CDFAE4CCF9A88222B800C1B973
:100A05000059BA002DEC8BF084CFCECDFCE5F0CBB0
:100A1500F97818EF2FFFEE33FEED33FDEC33FCEBE9
:100A250033FB10D703994004EB99FB0FD8E5E4F9A4
:100A3500FA227818EF2FFFEE33FEED33FDEC33FC91
:100A4500C933C910D7059BE99A4007EC9BFCE99A85
:100A5500F90FD8E0E4C9FAE4CCFB2275F010EF2FCA
:100A6500FFEE33FEED33FDCC33CCC833C810D707CA
:100A75009BEC9AE899400AED9BFDEC9AFCE899F805
:0E0A85000FD5F0DAE4CDFBE4CCFAE4C8F92298
:0E0A9300C3E49FFFE49EFEE49DFDE49CFC2274
:100AA100EB9FF5F0EA9E42F0E99D42F0E89C45F0AB
:010AB1002222
:100BCA00020D1FE493A3F8E493A34003F68001F215
:100BDA0008DFF48029E493A3F85407240CC8C3332C
:100BEA00C4540F4420C8834004F456800146F6DFFB
:100BFA00E4800B0102040810204080900D44E47E3A
:100C0A00019360BCA3FF543F30E509541FFEE493EF
:100C1A00A360010ECF54C025E060A840B8E493A3B6
:100C2A00FAE493A3F8E493A3C8C582C8CAC583CAE1
:100C3A00F0A3C8C582C8CAC583CADFE9DEE780BE99
:010D5D000095
:00000001FF
