:04092E00020A0000B9
:10090700C2901208CC3098FDC298AF997508008F35
:060917000912088C80EFBC
:0B091D00EF1FAC0670011E4C70F622AC
:1008CC00C2AC759850758920758BFD758DFD53875D
:1008DC007FD28EC299C298D2ACC2A0C2A1C2A222AF
:03002300020928A7
:0509280085990CC29846
:01092D003297
:1008EC008F993099FDC299E50B30E004D2A38002B8
:0B08FC00C2A3050BE50B7002050A22E9
:10088C00E508702EE50924FE601C14601F2402701C
:10089C0021D2A0C290E4FDD2907F887E1312091D54
:1008AC000DBD64F38002D2A1C290800CD2A2D29072
:0F08BC008006C2A0C2A1C2A2AF09AE081208EC0A
:0108CB00220A
:03000000020800F3
:0C080000787FE4F6D8FD75810C020847F3
:10080C00020907E493A3F8E493A34003F68001F2F2
:10081C0008DFF48029E493A3F85407240CC8C333ED
:10082C00C4540F4420C8834004F456800146F6DFBC
:10083C00E4800B010204081020408090092EE47E15
:10084C00019360BCA3FF543F30E509541FFEE493B1
:10085C00A360010ECF54C025E060A840B8E493A378
:10086C00FAE493A3F8E493A3C8C582C8CAC583CAA3
:10087C00F0A3C8C582C8CAC583CADFE9DEE780BE5B
:0109320000C4
:00000001FF
