:0409050002090000E3
:1008F5001208B83098FDC29885990812088C80F3C3
:1008B800C2AC759850758920758BFD758DFD538771
:1008C8007FD28EC299C298D2ACC2A0C2A1C2A222C3
:1008D800C2998F993099FDC299E50A30E004D2A3F4
:0D08E8008002C2A3050AE50A70020509227C
:10088C00E50824FE600E14600F146010240370142D
:10089C00C2A08010C2A1800CC2A28008D2A0D2A19A
:0C08AC00D2A28000AF087E001208D82203
:03000000020800F3
:0C080000787FE4F6D8FD75810A020847F5
:10080C000208F5E493A3F8E493A34003F68001F205
:10081C0008DFF48029E493A3F85407240CC8C333ED
:10082C00C4540F4420C8834004F456800146F6DFBC
:10083C00E4800B0102040810204080900905E47E3E
:10084C00019360BCA3FF543F30E509541FFEE493B1
:10085C00A360010ECF54C025E060A840B8E493A378
:10086C00FAE493A3F8E493A3C8C582C8CAC583CAA3
:10087C00F0A3C8C582C8CAC583CADFE9DEE780BE5B
:0109090000ED
:00000001FF
